:020000040800F2
:1000000000300020311E0008ED1B0008EF1B000827
:10001000F11B0008F31B0008F51B0008000000009E
:10002000000000000000000000000000F71B0008B6
:10003000F91B000800000000FB1B0008FD1B000866
:10004000811E0008811E0008811E0008811E000814
:10005000811E0008811E0008811E0008811E000804
:10006000811E0008811E0008811E0008811E0008F4
:10007000811E0008811E0008811E0008811E0008E4
:10008000811E0008811E0008811E0008811E0008D4
:10009000811E0008811E0008811E0008811E0008C4
:1000A000811E0008811E0008811E0008811E0008B4
:1000B000811E0008811E000800000000811E00084B
:1000C000811E00080000000000000000811E0008E2
:1000D00000000000811E0008811E0008811E00082B
:1000E000811E0008811E00080000000000000000C2
:1000F0000000000000000000000000000000000000
:1001000000000000000000000000000000000000EF
:100110000000000000000000811E0008811E000891
:1001200000000000000000000000000000000000CF
:1001300000000000000000000000000000000000BF
:10014000811E0008811E000800000000811E0008BA
:10015000811E0008811E0008811E0008811E000803
:10016000811E0008811E0008000000000000000041
:10017000000000000000000000000000000000007F
:0801800000000000811E0008D0
:1001880010B5054C237833B9044B13B10448AFF3C9
:1001980000800123237010BD0C0000200000000027
:1001A800DC1E000808B5034B1BB103490348AFF335
:1001B800008008BD0000000010000020DC1E0008C0
:1001C80090ED067AD0ED077AD0ED086A77EE277AB7
:1001D800C0ED026A77EEA67AC0ED007AF0EE007AFA
:1001E80096EEE77A80ED017A19B10023C3600361C6
:1001F8004361704738B50E4A0E4B054618784FF4E0
:100208007A73B3FBF0F31068B0FBF3F000F080F8FA
:10021800044658B90F2D09D8024629464FF0FF3039
:1002280000F042F8044B20461D6038BD012038BD5F
:10023800080000200000002004000020074A08B53C
:10024800136843F010031360032000F01BF800202C
:10025800FFF7D0FF01F0AAFC002008BD00200240F3
:10026800034A044B11681B780B441360704700BFA6
:100278004400002000000020014B1868704700BFB0
:1002880044000020074AD36823F4E0631B041B0CD6
:1002980043F0BF63000243F4003300F4E06003431B
:1002A800D360704700ED00E0174B30B5DC68C4F34D
:1002B8000224C4F10703251D042B28BF0423062D9F
:1002C8004FF0010505FA03F303F1FF338CBF033C3C
:1002D80000241940A14005FA04F4013C22400028FA
:1002E80042EA01024FEA0212AFBF00F1604000F09B
:1002F8000F00064BD2B2A5BF00F56140D2B21A5426
:1003080080F8002330BD00BF00ED00E014ED00E0F0
:100318000138B0F1807F0AD2064B074A5860F021B5
:1003280082F823100020072298601A607047012085
:10033800704700BF10E000E000ED00E02DE9F04F4D
:1003480085B00B68DFF86481564A01934FF00F09B6
:100358000023019CDC4002D105B0BDE8F08F0124E8
:1003680004FA03FA019C14EA0A0500F093804C6829
:1003780024F0100BBBF1020F11D1DF0800EB870747
:1003880003F0070E3E6A4FEA8E0E09FA0EFC26EAC3
:100398000C0C0E6906FA0EF646EA0C063E624FEAA7
:1003A800430C0327066807FA0CF7FF4304F0030E13
:1003B8003E400EFA0CFE0BF1FF3B4EEA0606BBF17F
:1003C800010F066011D8866806EA070BCE6806FAA0
:1003D8000CFE4EEA0B068660466826EA0A0AC4F353
:1003E80000169E4046EA0A064660C66837408E6890
:1003F80006FA0CF63743E600C7604BD5D8F8186004
:1004080046F00106C8F81860D8F8186023F003070A
:1004180007F1804706F0010607F58037039603F0D9
:10042800030E039EBE684FEA8E0E09FA0EFCB0F169
:10043800904F26EA0C0C2FD01B4EB0422ED006F55A
:100448008066B0422CD006F58066B04214BF0526FF
:10045800032606FA0EF646EA0C06BE601668EF4357
:1004680014F4803F0CBF3E402E431660566814F4C7
:10047800003F0CBF3E402E435660966814F4801F20
:100488000CBF3E402E439660D668A40254BF3E403F
:100498002E43D66001335CE70026DAE70126D8E769
:1004A8000226D6E70004014000040048001002407C
:1004B8002DE9F347054618B9012002B0BDE8F087D9
:1004C8000368DA0711D42B689B0700F185802B6835
:1004D8001C0700F1F6802B68580700F13F81EA6994
:1004E800002A40F0D6810020E7E7BA4C636803F0A1
:1004F8000C03042B07D0636803F00C03082B16D1F8
:100508006368DF0313D54FF4003393FAA3F221682D
:1005180093FAA3F3B3FA83F303F01F03012202FA59
:1005280003F30B42CFD06B68002BCCD1C4E76A68C9
:10053800B2F5803F25D1236843F480332360E36A12
:10054800A96823F00F030B43E36252B3FFF794FE4D
:100558004FF400368046012796FAA6F3226896FAE9
:10056800A6F3B3FA83F303F01F0307FA03F3134266
:10057800A9D1FFF781FEA0EB08006428ECD903207D
:100588009BE7236832B923F480332360236823F47C
:100598008023D3E7B2F5A02FF5D143F4802323605D
:1005A800C9E7FFF769FE4FF400368046012796FA3F
:1005B800A6F3226896FAA6F3B3FA83F303F01F03AF
:1005C80007FA03F313423FF47EAFFFF755FEA0EBA3
:1005D80008006428EBD9D2E77E4C636813F00C0F4F
:1005E80007D0636803F00C03082B22D16368DE038D
:1005F8001FD4022393FAA3F2216893FAA3F3B3FA60
:1006080083F303F01F03012202FA03F30B4203D022
:100618002B6993427FF450AF2168F82393FAA3F330
:10062800B3FA83F26B69934021F0F8021343236015
:100638004DE72A6901260AB396FAA6F3B3FA83F3BB
:1006480003F1845303F584139B0002271E60FFF710
:1006580013FE804697FAA7F3226897FAA7F3B3FA2E
:1006680083F303F01F0306FA03F31342D4D1FFF711
:1006780003FEA0EB08000228ECD980E796FAA6F35F
:10068800B3FA83F303F1845303F584139B00022721
:100698001A60FFF7F1FD804697FAA7F3226897FAE8
:1006A800A7F3B3FA83F303F01F0306FA03F3134225
:1006B8003FF40DAFFFF7E0FDA0EB08000228EBD9EF
:1006C8005DE7AA69434E444901241AB394FAA4F396
:1006D800B3FA83F30B449B0002271C60FFF7CCFDA1
:1006E800804697FAA7F397FAA7F397FAA7F3726ADF
:1006F80097FAA7F3B3FA83F303F01F0304FA03F39B
:1007080013427FF4E8AEFFF7B7FDA0EB080002281C
:10071800E7D934E794FAA4F3B3FA83F30B449B00C4
:1007280002271A60FFF7A8FD804697FAA7F397FA01
:10073800A7F397FAA7F3726A97FAA7F3B3FA83F3C2
:1007480003F01F0304FA03F313423FF4C4AEFFF7A8
:1007580093FDA0EB08000228E7D910E71D4CE369D8
:10076800D90034D4E36943F08053E361E36903F0CB
:1007780080530193019B0126184F3B68DA052FD55A
:10078800EB68012B3DD1236A43F001032362FFF795
:1007980073FD02278246B9464FF0010897FAA7F37E
:1007A80097FAA7F3002B6CD0226A99FAA9F3B3FA47
:1007B80083F303F01F0308FA03F3134258D0002E03
:1007C8003FF48DAEE36923F08053E36187E60026AA
:1007D800D2E700BF00100240208190100070004056
:1007E8003B6843F480733B60FFF746FD80463B68F7
:1007F800DB05C5D4FFF740FDA0EB08006428F6D957
:10080800BDE63BBB236A23F001032362236A23F07E
:1008180004032362FFF730FD02278246B9464FF0F2
:10082800010897FAA7F397FAA7F373B3226A99FA1C
:10083800A9F3B3FA83F303F01F0308FA03F313428F
:10084800BDD0FFF719FD41F28833A0EB0A009842AA
:10085800E7D994E6052B236A03D143F00403236206
:1008680091E723F001032362236A23F004038DE751
:10087800FFF702FD41F28833A0EB0A0098428DD9B8
:100888007DE697FAA7F3626A8FE797FAA7F3626A99
:10089800CDE7414C636803F00C03082B3FF40CAE22
:1008A800022A4FF0807352D193FAA3F3B3FA83F379
:1008B80003F1845303F584139B0000221A60FFF7A9
:1008C800DBFC4FF000778046012697FAA7F32268F1
:1008D80097FAA7F3B3FA83F303F01F0306FA03F3B7
:1008E80013422DD162686B6A296A22F474120B4391
:1008F800134363604FF0807393FAA3F3B3FA83F35F
:1009080003F1845303F584139B004FF000751E60B8
:10091800FFF7B2FC0126074695FAA5F3226895FA77
:10092800A5F3B3FA83F303F01F0306FA03F31342A4
:100938007FF4D9ADFFF7A0FCC01B0228ECD91EE656
:10094800FFF79AFCA0EB08000228BED917E693FA35
:10095800A3F3B3FA83F303F1845303F584139B00E1
:1009680000221A60FFF788FC4FF000750746012641
:1009780095FAA5F3226895FAA5F3B3FA83F303F081
:100988001F0306FA03F313423FF4ADADFFF774FCFF
:10099800C01B0228ECD9F2E50010024010B5134C38
:1009A800616801F00C03082B1ED14FF4701393FA01
:1009B800A3F301F47012B3FA83F322FA03F30C4A97
:1009C800D05CE36A0F2292FAA2F2B2FA82F203F042
:1009D8000F03D340074AD25CCB034ABF064B074BF1
:1009E800B3FBF2F3584310BD034810BD001002409A
:1009F800F41E0008041F000800127A0000093D00D8
:100A08002DE9F0410D46044610B90120BDE8F081FA
:100A18004C4A136803F007038B422ED322689107D0
:100A280036D4D2073CD4474A136803F007039D42E3
:100A380075D32268444D12F0040F7CD1130706D5F4
:100A48006B68226923F4605343EAC2036B60FFF7C3
:100A5800A5FF6B68F02292FAA2F2B2FA82F203F0D2
:100A6800F003D340394AD35CD840394B1860002092
:100A7800FFF7C0FB0020BDE8F081136823F00703EF
:100A88000B431360136803F007039942BDD1C5E710
:100A98002D49A0684B6823F0F00303434B60C0E77F
:100AA8006268294E012A27D14FF4003393FAA3F143
:100AB800316893FAA3F3B3FA83F303F01F0302FA3E
:100AC80003F30B42A1D0736823F003031A43726047
:100AD800FFF7D2FB41F2883807467368626803F073
:100AE8000C03B3EB820F9ED0FFF7C6FBC01B40453B
:100AF800F3D90320BDE8F081022A0CBF4FF0007340
:100B0800022393FAA3F1306893FAA3F3B3FA83F3B9
:100B180003F01F03012101FA03F30342D2E713682C
:100B280023F007032B431360136803F007039D4268
:100B38007FF46BAF7DE76B68E16823F4E0630B43F8
:100B48006B607BE70020024000100240181F00087D
:100B580008000020084B4FF4E0625B6892FAA2F2AA
:100B6800B2FA82F203F4E063D340044AD35C044A45
:100B78001068D840704700BF00100240281F0008C6
:100B880008000020084B4FF460525B6892FAA2F20A
:100B9800B2FA82F203F46053D340044AD35C044AA5
:100BA8001068D840704700BF00100240281F000896
:100BB8000800002070470000214A0368904210B5E1
:100BC80005D0B0F1804F02D01E4CA0420CD14C6829
:100BD80023F07003904243EA040310D0B0F1804F31
:100BE8000DD0184A90420AD0174A904207D002F511
:100BF8008062904203D002F58062904203D1CA68B5
:100C080023F4407313434A6923F0800313430360BA
:100C18008B68C3620B688362094B98420BD003F55B
:100C2800A053984207D003F58063984203D003F598
:100C38008063984201D10B6903630123436110BDAE
:100C4800002C0140000400400040014010B504465B
:100C5800A0B190F83D3003F0FF021BB980F83C20AA
:100C680000F0FEFF022384F83D302068211DFFF7C5
:100C7800A3FF012384F83D30002010BD012010BDE2
:100C880010B50446A0B190F83D3003F0FF021BB93F
:100C980080F83C20FFF78EFF022384F83D3020685F
:100CA800211DFFF789FF012384F83D30002010BD86
:100CB800012010BD036A23F001030362036A70B5C3
:100CC800446882690D6822F4803222F073022A4354
:100CD8008D6823F002032B43174DA8420BD005F56E
:100CE800A055A84207D005F58065A84203D005F5B0
:100CF8008065A8421AD1CD6823F008032B430E4D16
:100D0800A84223F004030BD005F5A055A84207D04C
:100D180005F58065A84203D005F58065A84205D190
:100D280024F440758E694C6934432C4344608261D5
:100D38004A684263036270BD002C0140036A23F0D5
:100D480010030362036A426870B584690D6824F071
:100D5800807424F4E64444EA05248D6823F02003D3
:100D680043EA0513104DA8420ED1CD6823F0800345
:100D780043EA051323F040034D698E6922F440626B
:100D8800354342EA850209E0084DA842F4D0084DEF
:100D9800A842F1D005F58065A842EDD042604A68C6
:100DA80084618263036270BD002C014000400140F1
:100DB80000440140036A23F480730362036A4268B3
:100DC80070B5C4690D6824F4803424F073042C438E
:100DD8008D6823F4007343EA0523114DA8420ED110
:100DE800CD6823F4006343EA052323F480634D6947
:100DF8008E6922F44052354342EA051209E0094D52
:100E0800A842F4D0084DA842F1D005F58065A84263
:100E1800EDD042604A68C461C263036270BD00BF1E
:100E2800002C01400040014000440140036A23F4C3
:100E380080530362026A30B54468C3690D6823F0C1
:100E4800807323F4E64343EA05238D6822F40052B5
:100E580042EA05320C4DA8420BD005F5A055A84230
:100E680007D005F58065A84203D005F58065A8423E
:100E780004D14D6924F4804444EA85144460C36174
:100E88004B680364026230BD002C014010B58468D1
:100E98000A4324F47F4442EA03232343836010BDBA
:100EA80090F83C30012B70B504464FF002001AD080
:100EB80084F83D002068012384F83C308268524B56
:100EC800134083600B68402B75D018D8102B00F0A6
:100ED8008F8009D8002B00F085800123002084F83A
:100EE8003D3084F83C0070BD202B00F08780302B0B
:100EF800F3D1836823F0700343F0370333E0702B9A
:100F080033D01BD8502B3FD0602BE6D14D68CE682C
:100F1800016A21F0100101628269036A22F47042B9
:100F280023F0A00343EA051342EA06328261036212
:100F3800836823F0700343F0670314E0B3F5805F20
:100F48000CD0B3F5005FC8D1CB684A688968FFF751
:100F58009DFF2268936843F4804313E0836823F479
:100F6800803323F007038360B7E7CB684A68896852
:100F7800FFF78CFF2268936823F4803323F077030C
:100F880043F077039360A8E74A68CE68016A056A68
:100F980025F001050562836921F00A0123F0F003B9
:100FA80043EA06130A4383610262836823F07003ED
:100FB80043F05703D7E74A68CE68016A056A25F007
:100FC80001050562836921F00A0123F0F00343EA71
:100FD80006130A4383610262836823F0700343F0B7
:100FE8004703C0E7836823F0700343F00703BAE7B9
:100FF800836823F0700343F01703B4E7836823F092
:10100800700343F02703AEE78800FEFF036A10B5BC
:1010180001248C4023EA04030362036A8A401A43CA
:10102800026210BD10B5044601220068FFF7EEFF0A
:1010380023680C4A93420BD002F5A052934207D082
:1010480002F58062934203D002F58062934203D195
:101058005A6C42F400425A641A6842F001021A605B
:10106800002010BD002C0140036A23F48033036282
:10107800026A30B54468436D0D6823F4803323F069
:1010880070032B438D6822F4003242EA05420D4D6D
:10109800A8420BD005F5A055A84207D005F58065F4
:1010A800A84203D005F58065A84204D14D6924F40F
:1010B800803444EA0524446043654B6883650262D2
:1010C80030BD00BF002C0140036A23F48013036283
:1010D800026A30B54468436D0D6823F0807323F4C9
:1010E800E04343EA05238D6822F4001242EA0552E0
:1010F8000C4DA8420BD005F5A055A84207D005F520
:101108008065A84203D005F58065A84204D14D69E1
:1011180024F4802444EA8524446043654B68C3650D
:10112800026230BD002C014038B590F83C30012BEC
:1011380004460D464FF0020010D00123082A84F817
:101148003C3084F83D0043D009D8FAB1042A2ED0A7
:101158000123002084F83D3084F83C0038BD102A73
:1011680047D0142A56D00C2AF2D12068FFF75EFE29
:1011780023682969DA6942F40062DA61DA6922F4DB
:101188008062DA61DA6942EA012230E02068FFF71A
:1011980091FD236829699A6942F008029A619A695F
:1011A80022F004029A619A690A439A61D0E720689A
:1011B800FFF7C4FD236829699A6942F400629A61BD
:1011C8009A6922F480629A619A6942EA0122ECE7FC
:1011D8002068FFF7EFFD23682969DA6942F0080201
:1011E800DA61DA6922F00402DA61DA690A43DA615B
:1011F800AEE72068FFF738FF236809695A6D42F0A7
:1012080008025A655A6D22F004025A655A6D0A435B
:101218005A659DE72068FFF757FF236809695A6DEB
:1012280042F400625A655A6D22F480625A655A6D1A
:1012380042EA0122ECE7000090F83C30012B30B57F
:1012480018D002680C4D53689468AA4202BF4D68D2
:1012580023F470032B430D68896823F070032B4334
:1012680024F08004536021430023916080F83C30CF
:10127800184630BD022030BD002C014038B5044668
:1012880005682169A368C26928680B4361690B4333
:101298004949134301400B432B606B68E168206A9E
:1012A80023F440530B436B60A968A36921F43061B0
:1012B80003430B43AB60414B9D4212D103F55843A6
:1012C8003F491B6B03F00303B2F5004FCB5C3BD1E6
:1012D800082B36D8DFE803F00F2124352D353535B6
:1012E8003000384B9D4203D003F580639D425ED1A8
:1012F800B2F5004F31D1FFF72DFC61684A0802EBC7
:101308004003B3FBF1F39BB2002023F00F022168E6
:10131800C3F342031343CB6038BDFFF733FCECE75C
:101328006068430803F5740303F51053B3FBF0F347
:10133800E9E7FFF733FBE0E76068430803F580332C
:10134800F4E701200023E0E7082B33D8DFE803F0B7
:1013580005101B32273232322A00FFF7FBFB636885
:1013680000EB5300B0FBF3F080B2E860002038BD1A
:10137800FFF708FC636800EB5300B0FBF3F00F4B7A
:1013880080B2D860F2E76268530803F5F40303F506
:101398009053B3FBF2F3094A9BB2D360E6E7FFF739
:1013A800FDFAE7E76268530803F50043F1E7B2F591
:1013B800004FC6D0012038BDF369FFEF0038014067
:1013C800141F000800440040436ADA0710B506D528
:1013D8000168846A4A6822F4003222434A609C0702
:1013E80006D50168C46A4A6822F4803222434A60FA
:1013F800590706D50168046B4A6822F48022224303
:101408004A601A0706D50168446B4A6822F400420C
:1014180022434A60DC0606D50168846B8A6822F498
:10142800805222438A60990606D50168C46B8A688F
:1014380022F4005222438A605A060FD50168046CD0
:101448004A6822F480122243B4F5801F4A6005D10D
:101458004A68446C22F4C00222434A601B0606D53F
:101468000268816C536823F400230B43536010BD5A
:101478002DE9F041069D04460F4616469846216818
:10148800CA6937EA02030CBF01220022B24202D025
:101498000020BDE8F0816B1CF2D09DB923681A6862
:1014A80022F4D0721A609A6822F001029A6020230E
:1014B80084F8693084F86A30002384F8683003209F
:1014C800BDE8F081FEF7D8FEA0EB08008542D6D231
:1014D800E4E773B504460026C666FEF7CDFE23682A
:1014E8001B681A07054617D423681B685B070AD5CB
:1014F8006FF07E43009300222B464FF48001204674
:10150800FFF7B6FFA0B92023002084F8693084F8DB
:10151800680084F86A300CE06FF07E43009332462E
:1015280003464FF400112046FFF7A2FF0028DBD046
:10153800032002B070BD10B5044660B390F869305E
:1015480003F0FF021BB980F8682000F03BFC22681A
:10155800242384F86930136823F0010313602046BC
:10156800FFF78CFE012816D0636A13B12046FFF7F7
:101578002BFF23685A6822F490425A609A6822F036
:101588002A029A601A6842F0010220461A60BDE8F1
:101598001040FFF79EBF012010BD00000146007AF1
:1015A8000B6810B500287FD0002B45D04A7A012A55
:1015B80028D003D3022A2ED0012008E0444A5068DC
:1015C80020EA0300506010681843106000208A7AEF
:1015D8006AB1022A23D0032A2AD0012A2ED13C4AF2
:1015E800D46824EA0304D4609468234393604B6866
:1015F800002B6BD04A7A012A3CD021D3022A42D050
:10160800012025E0324A106820EA03001060506883
:1016180018435060DAE72E4A10681843F6E72C4A58
:10162800946824EA03049460D4682343D360DEE713
:10163800274A94681C43F6E71846D8E70120D6E7FE
:10164800234A546A24EA03045462146A1C43146249
:101658008A7A002A3AD0022A19D0032A20D0012AED
:1016680033D11B4AD16A21EA0301D162916A0B4343
:10167800936210BD164A146A24EA03041462546A79
:101688001C435462E4E7124A146A1C43F6E7104A02
:10169800916A21EA03019162D16A0B43D36210BDBA
:1016A8000B4A916A1943F6E7094A1468DB431C4060
:1016B80014605468234053604B68146ADB431C4031
:1016C8001462516A0B40536210BD012010BD00BF67
:1016D800000401402DE9F0430A6892FAA2F44FF0A1
:1016E800010EB4FA84F403250F2732FA04F30DD15E
:1016F8004B68013B012B06D84368C96823EA0203FB
:101708004A431A4342600020BDE8F0830EFA04F30E
:10171800134069D0D1F80480D0F8009093FAA3FC64
:10172800BCFA8CFC93FAA3F6B6FA86F64FEA4C0C90
:1017380005FA0CFC760029EA0C0C08FA06F64CEAC5
:101748000606066008F1FF36012E16D8866893FA59
:10175800A3FCBCFA8CFC93FAA3F94FEA4C0C05FAEB
:101768000CFC26EA0C0CB9FA89F98E684FEA49098B
:1017780006FA09F64CEA06068660C66893FAA3FCE0
:10178800BCFA8CFC93FAA3F94FEA4C0C05FA0CFC52
:1017980026EA0C0CB9FA89F90E694FEA490906FAE2
:1017A80009F64CEA0606B8F1020FC6601CD193FA96
:1017B800A3F6B6FA86F6072ED1F814C016DCD0F8D0
:1017C800208093FAA3F6B6FA86F693FAA3F3B3FA4F
:1017D80083F3B60007FA06F69B0028EA06060CFA19
:1017E80003FC46EA0C06066201347EE7D0F8248042
:1017F8001B0A93FAA3F6B6FA86F693FAA3F3B3FA9A
:1018080083F3B60007FA06F69B0028EA06060CFAE8
:1018180003F333434362E7E7054B5A6902435A61CE
:101828005B6982B018400190019B02B0704700BF0D
:10183800001002402DE9F0418AB01822002104A8C6
:1018480000F040FB00244FF400200194029403941C
:10185800FFF7E2FF4FF48000FFF7DEFF4FF40030A0
:10186800FFF7DAFF4FF090454FF48020FFF7D4FFE1
:1018780020262D48AE624269F02393FAA3F3022191
:10188800B3FA83F322F0F00201FA03F31343274F6C
:101898004361D7F80CE04FF4005292FAA2F3B3FA7E
:1018A80083F303205B0000FA03F32EEA030392FAA2
:1018B800A2FEFB60D7F800E092FAA2F3B3FA83F332
:1018C8005B0000FA03F32EEA030392FAA2F04FF04A
:1018D80001083B6001A801928DF80E1002948DF862
:1018E8000C808DF80D40FFF759FE04A92846049690
:1018F800CDF81480069407940894FFF7EBFE602354
:1019080004A93846049305940894FFF7E3FE4FF4BE
:10191800604304A90648049305940894FFF7DAFE87
:101928000AB0BDE8F08100BF00000140000800488F
:1019380000040048344A354913692DE9F041344D13
:10194800176995F800C008690A69096903F0400831
:10195800C3F380139C4500F4804E02F4005401F454
:101968000046C0F38030C2F34032C1F3C031AC4608
:101978000DD0B8F1000F08D0264D17F0200F2F68B2
:1019880014BF013707F1FF372F608CF80030224D64
:101998002B7883420BD0214BBEF1000F13D01F6868
:1019A80014B1013701E01F68013F1F6028701C480F
:1019B8000378934211D0194BBEF1000F07D044B100
:1019C8001C68013C07E0002CEDD11F68E9E7002CFA
:1019D800F6D01C6801341C600270124B1A788A42D7
:1019E8000AD046B10D4A10481468046000201060FF
:1019F8000E4A0120106019704FF09042536983F02D
:101A080020035361BDE8F081000800480004004845
:101A18003000002040000020310000202C00002071
:101A28003200002033000020280000203800002069
:101A380010B590B02822002106A800F043FA002132
:101A4800142201A800F03EFA012306930A934FF4EA
:101A5800803302244FF4A0220E9306A84FF4E0131B
:101A680007920F930D94FEF723FD0F2301934FF474
:101A780080620023214601A80294039304920593EF
:101A8800FEF7BEFF10B010BD70B58CB0FEF7D6FBE8
:101A9800FFF7CEFFFFF7CEFE00F076F900F01AF957
:101AA800364B0993364B0A930121364B0B9303A807
:101AB800FEF786FB00213448344C354D354EFFF790
:101AC800B1FA04213048FFF7ADFA334B00229A638C
:101AD8005A63FFF72FFF22682B689A42ABBF23682F
:101AE8002B682A682268ABBF9B1A9B1A0022012226
:101AF800272B3260EDDD07EE903ADDED066A9DEDAD
:101B0800036ADDED055AB8EEE77ADDED047A8DED6E
:101B1800067A66EEA77AE7EE067A9DED076A9FEDEC
:101B28001F7ACDED076AE5EE867A9DED086A77EEB5
:101B3800867AF4EEC77AF1EE10FACDED087A18DC61
:101B4800F5EE407A9FED167AF1EE10FA48BFF0EE06
:101B5800477AFCEEE77A134ACDED017ABDF80430F6
:101B6800316813800C4A1B0131B19363002353631E
:101B7800AFE7F0EE477AECE79163F8E70000C84278
:101B8800CDCCCC3C0000A841480000202C0000200F
:101B980040000020340000200004004000F07F4591
:101BA800000000003C000020704700000C4B07B507
:101BB8009A6942F001029A619A6902F00102009260
:101BC800009ADA6942F08052DA61DB6903F08053E7
:101BD80001930720019BFEF755FB03B05DF804FB5A
:101BE800001002407047FEE7FEE7FEE7FEE7704799
:101BF80070477047FEF734BB1549D1F8883043F475
:101C08007003C1F88830134B1A6842F001021A6059
:101C18005868114A02405A601A6822F0847222F405
:101C280080321A601A6822F480221A605A6822F4F4
:101C3800FE025A60DA6A22F00F02DA62186B074A6B
:101C480002401A6300229A604FF000638B6070476D
:101C580000ED00E0001002400CC07FF8CCFC00FF53
:101C68000268084B9A4282B00AD103F50333DA6955
:101C780042F00202DA61DB6903F002030193019B7F
:101C880002B070470004004010B5044686B0142224
:101C9800002101A800F016F922680D4B9A4214D1D0
:101CA80003F5033301A95A6942F400325A615B69AA
:101CB80003F400330093009B502301934FF09040AE
:101CC800022302930593FEF739FB06B010BD00BF4F
:101CD8000004004010B58EB01022002103A800F0C7
:101CE800F1F800241C220DEB020021460094019417
:101CF800029400F0E7F82248224A846040F28333D5
:101D080080E80C000323C36004618461FEF79EFF32
:101D180008B1FFF749FF4FF4805303A9184803930C
:101D2800FFF7BEF808B1FFF73FFF1548FEF7A8FF19
:101D380008B1FFF739FF002469461148009402945E
:101D4800FFF77AFA08B1FFF72FFF6023002207A9EF
:101D58000B480793089409940B94FFF7E5F908B129
:101D6800FFF722FF042207A90548FFF7DDF908B1AC
:101D7800FFF71AFF0248FFF787FF0EB010BD00BF3C
:101D8800480000200004004008B50C480C4B4FF4F4
:101D9800164E80E808400C2200238360C36003616C
:101DA80042618361C36103624362FFF7C4FB18B1F8
:101DB800BDE80840FFF7F8BE08BD00BF8800002056
:101DC8000044004010B5044688B01422002103A83E
:101DD80000F078F82268134B9A4220D103F5E633D5
:101DE80003A9DA6942F40032DA61DA6902F40032EE
:101DF8000192019A5A6942F400325A615B6903F40C
:101E080000330293029B0C230393022304930323BE
:101E180006934FF0904007230793FEF78FFA08B018
:101E280010BD00BF00440040DFF834D0002103E0BB
:101E38000C4B5B58435004310B480C4B42189A42E8
:101E4800F6D30B4A02E0002342F8043B094B9A42BE
:101E5800F9D3FFF7D1FE00F011F8FFF715FEFEE702
:101E680000300020381F0008000000200C0000206F
:101E78000C000020F8000020FEE7000070B50D4EB1
:101E88000D4CA41BA4100025A54209D10B4E0C4CE7
:101E980000F020F8A41BA4100025A54205D170BDB0
:101EA80056F8253098470135EEE756F8253098471B
:101EB8000135F2E7301F0008301F0008301F000806
:101EC800341F000802440346934200D1704703F8C8
:101ED800011BF9E7F8B500BFF8BC08BC9E4670477F
:0C1EE800F8B500BFF8BC08BC9E4670476F
:101EF40002030405060708090A0B0C0D0E0F101047
:101F04000102030405060708090A0B0C0D0E0F1045
:101F140000040802000000000000000001020304A5
:0C1F240006070809000000000102030489
:041F3000AD010008F7
:041F34008901000817
:0C1F3800010000001000000000127A0000
:0400000508001E31A0
:00000001FF
